{
  "contractName": "ZPunks",
  "abi": [
    {
      "inputs": [],
      "stateMutability": "nonpayable",
      "type": "constructor"
    },
    {
      "anonymous": false,
      "inputs": [
        {
          "indexed": true,
          "internalType": "address",
          "name": "owner",
          "type": "address"
        },
        {
          "indexed": true,
          "internalType": "address",
          "name": "approved",
          "type": "address"
        },
        {
          "indexed": true,
          "internalType": "uint256",
          "name": "tokenId",
          "type": "uint256"
        }
      ],
      "name": "Approval",
      "type": "event"
    },
    {
      "anonymous": false,
      "inputs": [
        {
          "indexed": true,
          "internalType": "address",
          "name": "owner",
          "type": "address"
        },
        {
          "indexed": true,
          "internalType": "address",
          "name": "operator",
          "type": "address"
        },
        {
          "indexed": false,
          "internalType": "bool",
          "name": "approved",
          "type": "bool"
        }
      ],
      "name": "ApprovalForAll",
      "type": "event"
    },
    {
      "anonymous": false,
      "inputs": [
        {
          "indexed": true,
          "internalType": "address",
          "name": "previousOwner",
          "type": "address"
        },
        {
          "indexed": true,
          "internalType": "address",
          "name": "newOwner",
          "type": "address"
        }
      ],
      "name": "OwnershipTransferred",
      "type": "event"
    },
    {
      "anonymous": false,
      "inputs": [
        {
          "indexed": true,
          "internalType": "address",
          "name": "from",
          "type": "address"
        },
        {
          "indexed": true,
          "internalType": "address",
          "name": "to",
          "type": "address"
        },
        {
          "indexed": true,
          "internalType": "uint256",
          "name": "tokenId",
          "type": "uint256"
        }
      ],
      "name": "Transfer",
      "type": "event"
    },
    {
      "inputs": [
        {
          "internalType": "address",
          "name": "to",
          "type": "address"
        },
        {
          "internalType": "uint256",
          "name": "tokenId",
          "type": "uint256"
        }
      ],
      "name": "approve",
      "outputs": [],
      "stateMutability": "nonpayable",
      "type": "function"
    },
    {
      "inputs": [
        {
          "internalType": "address",
          "name": "owner",
          "type": "address"
        }
      ],
      "name": "balanceOf",
      "outputs": [
        {
          "internalType": "uint256",
          "name": "",
          "type": "uint256"
        }
      ],
      "stateMutability": "view",
      "type": "function"
    },
    {
      "inputs": [],
      "name": "currentTokenId",
      "outputs": [
        {
          "internalType": "uint256",
          "name": "",
          "type": "uint256"
        }
      ],
      "stateMutability": "view",
      "type": "function"
    },
    {
      "inputs": [
        {
          "internalType": "uint256",
          "name": "tokenId",
          "type": "uint256"
        }
      ],
      "name": "getApproved",
      "outputs": [
        {
          "internalType": "address",
          "name": "",
          "type": "address"
        }
      ],
      "stateMutability": "view",
      "type": "function"
    },
    {
      "inputs": [
        {
          "internalType": "address",
          "name": "owner",
          "type": "address"
        },
        {
          "internalType": "address",
          "name": "operator",
          "type": "address"
        }
      ],
      "name": "isApprovedForAll",
      "outputs": [
        {
          "internalType": "bool",
          "name": "",
          "type": "bool"
        }
      ],
      "stateMutability": "view",
      "type": "function"
    },
    {
      "inputs": [],
      "name": "name",
      "outputs": [
        {
          "internalType": "string",
          "name": "",
          "type": "string"
        }
      ],
      "stateMutability": "view",
      "type": "function"
    },
    {
      "inputs": [],
      "name": "owner",
      "outputs": [
        {
          "internalType": "address",
          "name": "",
          "type": "address"
        }
      ],
      "stateMutability": "view",
      "type": "function"
    },
    {
      "inputs": [
        {
          "internalType": "uint256",
          "name": "tokenId",
          "type": "uint256"
        }
      ],
      "name": "ownerOf",
      "outputs": [
        {
          "internalType": "address",
          "name": "",
          "type": "address"
        }
      ],
      "stateMutability": "view",
      "type": "function"
    },
    {
      "inputs": [],
      "name": "renounceOwnership",
      "outputs": [],
      "stateMutability": "nonpayable",
      "type": "function"
    },
    {
      "inputs": [
        {
          "internalType": "address",
          "name": "from",
          "type": "address"
        },
        {
          "internalType": "address",
          "name": "to",
          "type": "address"
        },
        {
          "internalType": "uint256",
          "name": "tokenId",
          "type": "uint256"
        }
      ],
      "name": "safeTransferFrom",
      "outputs": [],
      "stateMutability": "nonpayable",
      "type": "function"
    },
    {
      "inputs": [
        {
          "internalType": "address",
          "name": "from",
          "type": "address"
        },
        {
          "internalType": "address",
          "name": "to",
          "type": "address"
        },
        {
          "internalType": "uint256",
          "name": "tokenId",
          "type": "uint256"
        },
        {
          "internalType": "bytes",
          "name": "_data",
          "type": "bytes"
        }
      ],
      "name": "safeTransferFrom",
      "outputs": [],
      "stateMutability": "nonpayable",
      "type": "function"
    },
    {
      "inputs": [
        {
          "internalType": "address",
          "name": "operator",
          "type": "address"
        },
        {
          "internalType": "bool",
          "name": "approved",
          "type": "bool"
        }
      ],
      "name": "setApprovalForAll",
      "outputs": [],
      "stateMutability": "nonpayable",
      "type": "function"
    },
    {
      "inputs": [
        {
          "internalType": "bytes4",
          "name": "interfaceId",
          "type": "bytes4"
        }
      ],
      "name": "supportsInterface",
      "outputs": [
        {
          "internalType": "bool",
          "name": "",
          "type": "bool"
        }
      ],
      "stateMutability": "view",
      "type": "function"
    },
    {
      "inputs": [],
      "name": "symbol",
      "outputs": [
        {
          "internalType": "string",
          "name": "",
          "type": "string"
        }
      ],
      "stateMutability": "view",
      "type": "function"
    },
    {
      "inputs": [
        {
          "internalType": "address",
          "name": "from",
          "type": "address"
        },
        {
          "internalType": "address",
          "name": "to",
          "type": "address"
        },
        {
          "internalType": "uint256",
          "name": "tokenId",
          "type": "uint256"
        }
      ],
      "name": "transferFrom",
      "outputs": [],
      "stateMutability": "nonpayable",
      "type": "function"
    },
    {
      "inputs": [
        {
          "internalType": "address",
          "name": "newOwner",
          "type": "address"
        }
      ],
      "name": "transferOwnership",
      "outputs": [],
      "stateMutability": "nonpayable",
      "type": "function"
    },
    {
      "inputs": [
        {
          "internalType": "address",
          "name": "to",
          "type": "address"
        },
        {
          "internalType": "string",
          "name": "uri",
          "type": "string"
        }
      ],
      "name": "safeMint",
      "outputs": [],
      "stateMutability": "nonpayable",
      "type": "function"
    },
    {
      "inputs": [
        {
          "internalType": "uint256",
          "name": "tokenId",
          "type": "uint256"
        }
      ],
      "name": "tokenURI",
      "outputs": [
        {
          "internalType": "string",
          "name": "",
          "type": "string"
        }
      ],
      "stateMutability": "view",
      "type": "function"
    }
  ],
  "bytecode": "0x60806040523480156200001157600080fd5b506040518060400160405280600681526020017f5a50756e6b7300000000000000000000000000000000000000000000000000008152506040518060400160405280600381526020017f5a504b0000000000000000000000000000000000000000000000000000000000815250816000908051906020019062000096929190620001a6565b508060019080519060200190620000af929190620001a6565b505050620000d2620000c6620000d860201b60201c565b620000e060201b60201c565b620002bb565b600033905090565b6000600760009054906101000a900473ffffffffffffffffffffffffffffffffffffffff16905081600760006101000a81548173ffffffffffffffffffffffffffffffffffffffff021916908373ffffffffffffffffffffffffffffffffffffffff1602179055508173ffffffffffffffffffffffffffffffffffffffff168173ffffffffffffffffffffffffffffffffffffffff167f8be0079c531659141344cd1fd0a4f28419497f9722a3daafe3b4186f6b6457e060405160405180910390a35050565b828054620001b49062000285565b90600052602060002090601f016020900481019282620001d8576000855562000224565b82601f10620001f357805160ff191683800117855562000224565b8280016001018555821562000224579182015b828111156200022357825182559160200191906001019062000206565b5b50905062000233919062000237565b5090565b5b808211156200025257600081600090555060010162000238565b5090565b7f4e487b7100000000000000000000000000000000000000000000000000000000600052602260045260246000fd5b600060028204905060018216806200029e57607f821691505b60208210811415620002b557620002b462000256565b5b50919050565b6130ea80620002cb6000396000f3fe608060405234801561001057600080fd5b50600436106101155760003560e01c8063715018a6116100a2578063b88d4fde11610071578063b88d4fde146102cc578063c87b56dd146102e8578063d204c45e14610318578063e985e9c514610334578063f2fde38b1461036457610115565b8063715018a61461026a5780638da5cb5b1461027457806395d89b4114610292578063a22cb465146102b057610115565b8063095ea7b3116100e9578063095ea7b3146101b657806323b872dd146101d257806342842e0e146101ee5780636352211e1461020a57806370a082311461023a57610115565b80629a9b7b1461011a57806301ffc9a71461013857806306fdde0314610168578063081812fc14610186575b600080fd5b610122610380565b60405161012f9190611cd0565b60405180910390f35b610152600480360381019061014d9190611d57565b610386565b60405161015f9190611d9f565b60405180910390f35b610170610468565b60405161017d9190611e53565b60405180910390f35b6101a0600480360381019061019b9190611ea1565b6104fa565b6040516101ad9190611f0f565b60405180910390f35b6101d060048036038101906101cb9190611f56565b61057f565b005b6101ec60048036038101906101e79190611f96565b610697565b005b61020860048036038101906102039190611f96565b6106f7565b005b610224600480360381019061021f9190611ea1565b610717565b6040516102319190611f0f565b60405180910390f35b610254600480360381019061024f9190611fe9565b6107c9565b6040516102619190611cd0565b60405180910390f35b610272610881565b005b61027c610909565b6040516102899190611f0f565b60405180910390f35b61029a610933565b6040516102a79190611e53565b60405180910390f35b6102ca60048036038101906102c59190612042565b6109c5565b005b6102e660048036038101906102e191906121b7565b6109db565b005b61030260048036038101906102fd9190611ea1565b610a3d565b60405161030f9190611e53565b60405180910390f35b610332600480360381019061032d91906122db565b610a4f565b005b61034e60048036038101906103499190612337565b610b03565b60405161035b9190611d9f565b60405180910390f35b61037e60048036038101906103799190611fe9565b610b97565b005b60095481565b60007f80ac58cd000000000000000000000000000000000000000000000000000000007bffffffffffffffffffffffffffffffffffffffffffffffffffffffff1916827bffffffffffffffffffffffffffffffffffffffffffffffffffffffff1916148061045157507f5b5e139f000000000000000000000000000000000000000000000000000000007bffffffffffffffffffffffffffffffffffffffffffffffffffffffff1916827bffffffffffffffffffffffffffffffffffffffffffffffffffffffff1916145b80610461575061046082610c8f565b5b9050919050565b606060008054610477906123a6565b80601f01602080910402602001604051908101604052809291908181526020018280546104a3906123a6565b80156104f05780601f106104c5576101008083540402835291602001916104f0565b820191906000526020600020905b8154815290600101906020018083116104d357829003601f168201915b5050505050905090565b600061050582610cf9565b610544576040517f08c379a000000000000000000000000000000000000000000000000000000000815260040161053b9061244a565b60405180910390fd5b6004600083815260200190815260200160002060009054906101000a900473ffffffffffffffffffffffffffffffffffffffff169050919050565b600061058a82610717565b90508073ffffffffffffffffffffffffffffffffffffffff168373ffffffffffffffffffffffffffffffffffffffff1614156105fb576040517f08c379a00000000000000000000000000000000000000000000000000000000081526004016105f2906124dc565b60405180910390fd5b8073ffffffffffffffffffffffffffffffffffffffff1661061a610d65565b73ffffffffffffffffffffffffffffffffffffffff161480610649575061064881610643610d65565b610b03565b5b610688576040517f08c379a000000000000000000000000000000000000000000000000000000000815260040161067f9061256e565b60405180910390fd5b6106928383610d6d565b505050565b6106a86106a2610d65565b82610e26565b6106e7576040517f08c379a00000000000000000000000000000000000000000000000000000000081526004016106de90612600565b60405180910390fd5b6106f2838383610f04565b505050565b610712838383604051806020016040528060008152506109db565b505050565b6000806002600084815260200190815260200160002060009054906101000a900473ffffffffffffffffffffffffffffffffffffffff169050600073ffffffffffffffffffffffffffffffffffffffff168173ffffffffffffffffffffffffffffffffffffffff1614156107c0576040517f08c379a00000000000000000000000000000000000000000000000000000000081526004016107b790612692565b60405180910390fd5b80915050919050565b60008073ffffffffffffffffffffffffffffffffffffffff168273ffffffffffffffffffffffffffffffffffffffff16141561083a576040517f08c379a000000000000000000000000000000000000000000000000000000000815260040161083190612724565b60405180910390fd5b600360008373ffffffffffffffffffffffffffffffffffffffff1673ffffffffffffffffffffffffffffffffffffffff168152602001908152602001600020549050919050565b610889610d65565b73ffffffffffffffffffffffffffffffffffffffff166108a7610909565b73ffffffffffffffffffffffffffffffffffffffff16146108fd576040517f08c379a00000000000000000000000000000000000000000000000000000000081526004016108f490612790565b60405180910390fd5b610907600061116b565b565b6000600760009054906101000a900473ffffffffffffffffffffffffffffffffffffffff16905090565b606060018054610942906123a6565b80601f016020809104026020016040519081016040528092919081815260200182805461096e906123a6565b80156109bb5780601f10610990576101008083540402835291602001916109bb565b820191906000526020600020905b81548152906001019060200180831161099e57829003601f168201915b5050505050905090565b6109d76109d0610d65565b8383611231565b5050565b6109ec6109e6610d65565b83610e26565b610a2b576040517f08c379a0000000000000000000000000000000000000000000000000000000008152600401610a2290612600565b60405180910390fd5b610a378484848461139e565b50505050565b6060610a48826113fa565b9050919050565b610a57610d65565b73ffffffffffffffffffffffffffffffffffffffff16610a75610909565b73ffffffffffffffffffffffffffffffffffffffff1614610acb576040517f08c379a0000000000000000000000000000000000000000000000000000000008152600401610ac290612790565b60405180910390fd5b6000610ad7600861154c565b9050610ae3600861155a565b610aed8382611570565b610af7818361158e565b80600981905550505050565b6000600560008473ffffffffffffffffffffffffffffffffffffffff1673ffffffffffffffffffffffffffffffffffffffff16815260200190815260200160002060008373ffffffffffffffffffffffffffffffffffffffff1673ffffffffffffffffffffffffffffffffffffffff16815260200190815260200160002060009054906101000a900460ff16905092915050565b610b9f610d65565b73ffffffffffffffffffffffffffffffffffffffff16610bbd610909565b73ffffffffffffffffffffffffffffffffffffffff1614610c13576040517f08c379a0000000000000000000000000000000000000000000000000000000008152600401610c0a90612790565b60405180910390fd5b600073ffffffffffffffffffffffffffffffffffffffff168173ffffffffffffffffffffffffffffffffffffffff161415610c83576040517f08c379a0000000000000000000000000000000000000000000000000000000008152600401610c7a90612822565b60405180910390fd5b610c8c8161116b565b50565b60007f01ffc9a7000000000000000000000000000000000000000000000000000000007bffffffffffffffffffffffffffffffffffffffffffffffffffffffff1916827bffffffffffffffffffffffffffffffffffffffffffffffffffffffff1916149050919050565b60008073ffffffffffffffffffffffffffffffffffffffff166002600084815260200190815260200160002060009054906101000a900473ffffffffffffffffffffffffffffffffffffffff1673ffffffffffffffffffffffffffffffffffffffff1614159050919050565b600033905090565b816004600083815260200190815260200160002060006101000a81548173ffffffffffffffffffffffffffffffffffffffff021916908373ffffffffffffffffffffffffffffffffffffffff160217905550808273ffffffffffffffffffffffffffffffffffffffff16610de083610717565b73ffffffffffffffffffffffffffffffffffffffff167f8c5be1e5ebec7d5bd14f71427d1e84f3dd0314c0f7b2291e5b200ac8c7c3b92560405160405180910390a45050565b6000610e3182610cf9565b610e70576040517f08c379a0000000000000000000000000000000000000000000000000000000008152600401610e67906128b4565b60405180910390fd5b6000610e7b83610717565b90508073ffffffffffffffffffffffffffffffffffffffff168473ffffffffffffffffffffffffffffffffffffffff161480610eea57508373ffffffffffffffffffffffffffffffffffffffff16610ed2846104fa565b73ffffffffffffffffffffffffffffffffffffffff16145b80610efb5750610efa8185610b03565b5b91505092915050565b8273ffffffffffffffffffffffffffffffffffffffff16610f2482610717565b73ffffffffffffffffffffffffffffffffffffffff1614610f7a576040517f08c379a0000000000000000000000000000000000000000000000000000000008152600401610f7190612946565b60405180910390fd5b600073ffffffffffffffffffffffffffffffffffffffff168273ffffffffffffffffffffffffffffffffffffffff161415610fea576040517f08c379a0000000000000000000000000000000000000000000000000000000008152600401610fe1906129d8565b60405180910390fd5b610ff5838383611602565b611000600082610d6d565b6001600360008573ffffffffffffffffffffffffffffffffffffffff1673ffffffffffffffffffffffffffffffffffffffff16815260200190815260200160002060008282546110509190612a27565b925050819055506001600360008473ffffffffffffffffffffffffffffffffffffffff1673ffffffffffffffffffffffffffffffffffffffff16815260200190815260200160002060008282546110a79190612a5b565b92505081905550816002600083815260200190815260200160002060006101000a81548173ffffffffffffffffffffffffffffffffffffffff021916908373ffffffffffffffffffffffffffffffffffffffff160217905550808273ffffffffffffffffffffffffffffffffffffffff168473ffffffffffffffffffffffffffffffffffffffff167fddf252ad1be2c89b69c2b068fc378daa952ba7f163c4a11628f55a4df523b3ef60405160405180910390a4611166838383611607565b505050565b6000600760009054906101000a900473ffffffffffffffffffffffffffffffffffffffff16905081600760006101000a81548173ffffffffffffffffffffffffffffffffffffffff021916908373ffffffffffffffffffffffffffffffffffffffff1602179055508173ffffffffffffffffffffffffffffffffffffffff168173ffffffffffffffffffffffffffffffffffffffff167f8be0079c531659141344cd1fd0a4f28419497f9722a3daafe3b4186f6b6457e060405160405180910390a35050565b8173ffffffffffffffffffffffffffffffffffffffff168373ffffffffffffffffffffffffffffffffffffffff1614156112a0576040517f08c379a000000000000000000000000000000000000000000000000000000000815260040161129790612afd565b60405180910390fd5b80600560008573ffffffffffffffffffffffffffffffffffffffff1673ffffffffffffffffffffffffffffffffffffffff16815260200190815260200160002060008473ffffffffffffffffffffffffffffffffffffffff1673ffffffffffffffffffffffffffffffffffffffff16815260200190815260200160002060006101000a81548160ff0219169083151502179055508173ffffffffffffffffffffffffffffffffffffffff168373ffffffffffffffffffffffffffffffffffffffff167f17307eab39ab6107e8899845ad3d59bd9653f200f220920489ca2b5937696c31836040516113919190611d9f565b60405180910390a3505050565b6113a9848484610f04565b6113b58484848461160c565b6113f4576040517f08c379a00000000000000000000000000000000000000000000000000000000081526004016113eb90612b8f565b60405180910390fd5b50505050565b606061140582610cf9565b611444576040517f08c379a000000000000000000000000000000000000000000000000000000000815260040161143b90612c21565b60405180910390fd5b6000600660008481526020019081526020016000208054611464906123a6565b80601f0160208091040260200160405190810160405280929190818152602001828054611490906123a6565b80156114dd5780601f106114b2576101008083540402835291602001916114dd565b820191906000526020600020905b8154815290600101906020018083116114c057829003601f168201915b5050505050905060006114ee611794565b9050600081511415611504578192505050611547565b600082511115611539578082604051602001611521929190612c7d565b60405160208183030381529060405292505050611547565b611542846117b4565b925050505b919050565b600081600001549050919050565b6001816000016000828254019250508190555050565b61158a82826040518060200160405280600081525061185b565b5050565b61159782610cf9565b6115d6576040517f08c379a00000000000000000000000000000000000000000000000000000000081526004016115cd90612d13565b60405180910390fd5b806006600084815260200190815260200160002090805190602001906115fd929190611c14565b505050565b505050565b505050565b600061162d8473ffffffffffffffffffffffffffffffffffffffff166118b6565b15611787578373ffffffffffffffffffffffffffffffffffffffff1663150b7a02611656610d65565b8786866040518563ffffffff1660e01b81526004016116789493929190612d88565b6020604051808303816000875af19250505080156116b457506040513d601f19601f820116820180604052508101906116b19190612de9565b60015b611737573d80600081146116e4576040519150601f19603f3d011682016040523d82523d6000602084013e6116e9565b606091505b5060008151141561172f576040517f08c379a000000000000000000000000000000000000000000000000000000000815260040161172690612b8f565b60405180910390fd5b805181602001fd5b63150b7a0260e01b7bffffffffffffffffffffffffffffffffffffffffffffffffffffffff1916817bffffffffffffffffffffffffffffffffffffffffffffffffffffffff19161491505061178c565b600190505b949350505050565b60606040518060600160405280602b815260200161308a602b9139905090565b60606117bf82610cf9565b6117fe576040517f08c379a00000000000000000000000000000000000000000000000000000000081526004016117f590612e88565b60405180910390fd5b6000611808611794565b905060008151116118285760405180602001604052806000815250611853565b80611832846118d9565b604051602001611843929190612c7d565b6040516020818303038152906040525b915050919050565b6118658383611a3a565b611872600084848461160c565b6118b1576040517f08c379a00000000000000000000000000000000000000000000000000000000081526004016118a890612b8f565b60405180910390fd5b505050565b6000808273ffffffffffffffffffffffffffffffffffffffff163b119050919050565b60606000821415611921576040518060400160405280600181526020017f30000000000000000000000000000000000000000000000000000000000000008152509050611a35565b600082905060005b6000821461195357808061193c90612ea8565b915050600a8261194c9190612f20565b9150611929565b60008167ffffffffffffffff81111561196f5761196e61208c565b5b6040519080825280601f01601f1916602001820160405280156119a15781602001600182028036833780820191505090505b5090505b60008514611a2e576001826119ba9190612a27565b9150600a856119c99190612f51565b60306119d59190612a5b565b60f81b8183815181106119eb576119ea612f82565b5b60200101907effffffffffffffffffffffffffffffffffffffffffffffffffffffffffffff1916908160001a905350600a85611a279190612f20565b94506119a5565b8093505050505b919050565b600073ffffffffffffffffffffffffffffffffffffffff168273ffffffffffffffffffffffffffffffffffffffff161415611aaa576040517f08c379a0000000000000000000000000000000000000000000000000000000008152600401611aa190612ffd565b60405180910390fd5b611ab381610cf9565b15611af3576040517f08c379a0000000000000000000000000000000000000000000000000000000008152600401611aea90613069565b60405180910390fd5b611aff60008383611602565b6001600360008473ffffffffffffffffffffffffffffffffffffffff1673ffffffffffffffffffffffffffffffffffffffff1681526020019081526020016000206000828254611b4f9190612a5b565b92505081905550816002600083815260200190815260200160002060006101000a81548173ffffffffffffffffffffffffffffffffffffffff021916908373ffffffffffffffffffffffffffffffffffffffff160217905550808273ffffffffffffffffffffffffffffffffffffffff16600073ffffffffffffffffffffffffffffffffffffffff167fddf252ad1be2c89b69c2b068fc378daa952ba7f163c4a11628f55a4df523b3ef60405160405180910390a4611c1060008383611607565b5050565b828054611c20906123a6565b90600052602060002090601f016020900481019282611c425760008555611c89565b82601f10611c5b57805160ff1916838001178555611c89565b82800160010185558215611c89579182015b82811115611c88578251825591602001919060010190611c6d565b5b509050611c969190611c9a565b5090565b5b80821115611cb3576000816000905550600101611c9b565b5090565b6000819050919050565b611cca81611cb7565b82525050565b6000602082019050611ce56000830184611cc1565b92915050565b6000604051905090565b600080fd5b600080fd5b60007fffffffff0000000000000000000000000000000000000000000000000000000082169050919050565b611d3481611cff565b8114611d3f57600080fd5b50565b600081359050611d5181611d2b565b92915050565b600060208284031215611d6d57611d6c611cf5565b5b6000611d7b84828501611d42565b91505092915050565b60008115159050919050565b611d9981611d84565b82525050565b6000602082019050611db46000830184611d90565b92915050565b600081519050919050565b600082825260208201905092915050565b60005b83811015611df4578082015181840152602081019050611dd9565b83811115611e03576000848401525b50505050565b6000601f19601f8301169050919050565b6000611e2582611dba565b611e2f8185611dc5565b9350611e3f818560208601611dd6565b611e4881611e09565b840191505092915050565b60006020820190508181036000830152611e6d8184611e1a565b905092915050565b611e7e81611cb7565b8114611e8957600080fd5b50565b600081359050611e9b81611e75565b92915050565b600060208284031215611eb757611eb6611cf5565b5b6000611ec584828501611e8c565b91505092915050565b600073ffffffffffffffffffffffffffffffffffffffff82169050919050565b6000611ef982611ece565b9050919050565b611f0981611eee565b82525050565b6000602082019050611f246000830184611f00565b92915050565b611f3381611eee565b8114611f3e57600080fd5b50565b600081359050611f5081611f2a565b92915050565b60008060408385031215611f6d57611f6c611cf5565b5b6000611f7b85828601611f41565b9250506020611f8c85828601611e8c565b9150509250929050565b600080600060608486031215611faf57611fae611cf5565b5b6000611fbd86828701611f41565b9350506020611fce86828701611f41565b9250506040611fdf86828701611e8c565b9150509250925092565b600060208284031215611fff57611ffe611cf5565b5b600061200d84828501611f41565b91505092915050565b61201f81611d84565b811461202a57600080fd5b50565b60008135905061203c81612016565b92915050565b6000806040838503121561205957612058611cf5565b5b600061206785828601611f41565b92505060206120788582860161202d565b9150509250929050565b600080fd5b600080fd5b7f4e487b7100000000000000000000000000000000000000000000000000000000600052604160045260246000fd5b6120c482611e09565b810181811067ffffffffffffffff821117156120e3576120e261208c565b5b80604052505050565b60006120f6611ceb565b905061210282826120bb565b919050565b600067ffffffffffffffff8211156121225761212161208c565b5b61212b82611e09565b9050602081019050919050565b82818337600083830152505050565b600061215a61215584612107565b6120ec565b90508281526020810184848401111561217657612175612087565b5b612181848285612138565b509392505050565b600082601f83011261219e5761219d612082565b5b81356121ae848260208601612147565b91505092915050565b600080600080608085870312156121d1576121d0611cf5565b5b60006121df87828801611f41565b94505060206121f087828801611f41565b935050604061220187828801611e8c565b925050606085013567ffffffffffffffff81111561222257612221611cfa565b5b61222e87828801612189565b91505092959194509250565b600067ffffffffffffffff8211156122555761225461208c565b5b61225e82611e09565b9050602081019050919050565b600061227e6122798461223a565b6120ec565b90508281526020810184848401111561229a57612299612087565b5b6122a5848285612138565b509392505050565b600082601f8301126122c2576122c1612082565b5b81356122d284826020860161226b565b91505092915050565b600080604083850312156122f2576122f1611cf5565b5b600061230085828601611f41565b925050602083013567ffffffffffffffff81111561232157612320611cfa565b5b61232d858286016122ad565b9150509250929050565b6000806040838503121561234e5761234d611cf5565b5b600061235c85828601611f41565b925050602061236d85828601611f41565b9150509250929050565b7f4e487b7100000000000000000000000000000000000000000000000000000000600052602260045260246000fd5b600060028204905060018216806123be57607f821691505b602082108114156123d2576123d1612377565b5b50919050565b7f4552433732313a20617070726f76656420717565727920666f72206e6f6e657860008201527f697374656e7420746f6b656e0000000000000000000000000000000000000000602082015250565b6000612434602c83611dc5565b915061243f826123d8565b604082019050919050565b6000602082019050818103600083015261246381612427565b9050919050565b7f4552433732313a20617070726f76616c20746f2063757272656e74206f776e6560008201527f7200000000000000000000000000000000000000000000000000000000000000602082015250565b60006124c6602183611dc5565b91506124d18261246a565b604082019050919050565b600060208201905081810360008301526124f5816124b9565b9050919050565b7f4552433732313a20617070726f76652063616c6c6572206973206e6f74206f7760008201527f6e6572206e6f7220617070726f76656420666f7220616c6c0000000000000000602082015250565b6000612558603883611dc5565b9150612563826124fc565b604082019050919050565b600060208201905081810360008301526125878161254b565b9050919050565b7f4552433732313a207472616e736665722063616c6c6572206973206e6f74206f60008201527f776e6572206e6f7220617070726f766564000000000000000000000000000000602082015250565b60006125ea603183611dc5565b91506125f58261258e565b604082019050919050565b60006020820190508181036000830152612619816125dd565b9050919050565b7f4552433732313a206f776e657220717565727920666f72206e6f6e657869737460008201527f656e7420746f6b656e0000000000000000000000000000000000000000000000602082015250565b600061267c602983611dc5565b915061268782612620565b604082019050919050565b600060208201905081810360008301526126ab8161266f565b9050919050565b7f4552433732313a2062616c616e636520717565727920666f7220746865207a6560008201527f726f206164647265737300000000000000000000000000000000000000000000602082015250565b600061270e602a83611dc5565b9150612719826126b2565b604082019050919050565b6000602082019050818103600083015261273d81612701565b9050919050565b7f4f776e61626c653a2063616c6c6572206973206e6f7420746865206f776e6572600082015250565b600061277a602083611dc5565b915061278582612744565b602082019050919050565b600060208201905081810360008301526127a98161276d565b9050919050565b7f4f776e61626c653a206e6577206f776e657220697320746865207a65726f206160008201527f6464726573730000000000000000000000000000000000000000000000000000602082015250565b600061280c602683611dc5565b9150612817826127b0565b604082019050919050565b6000602082019050818103600083015261283b816127ff565b9050919050565b7f4552433732313a206f70657261746f7220717565727920666f72206e6f6e657860008201527f697374656e7420746f6b656e0000000000000000000000000000000000000000602082015250565b600061289e602c83611dc5565b91506128a982612842565b604082019050919050565b600060208201905081810360008301526128cd81612891565b9050919050565b7f4552433732313a207472616e736665722066726f6d20696e636f72726563742060008201527f6f776e6572000000000000000000000000000000000000000000000000000000602082015250565b6000612930602583611dc5565b915061293b826128d4565b604082019050919050565b6000602082019050818103600083015261295f81612923565b9050919050565b7f4552433732313a207472616e7366657220746f20746865207a65726f2061646460008201527f7265737300000000000000000000000000000000000000000000000000000000602082015250565b60006129c2602483611dc5565b91506129cd82612966565b604082019050919050565b600060208201905081810360008301526129f1816129b5565b9050919050565b7f4e487b7100000000000000000000000000000000000000000000000000000000600052601160045260246000fd5b6000612a3282611cb7565b9150612a3d83611cb7565b925082821015612a5057612a4f6129f8565b5b828203905092915050565b6000612a6682611cb7565b9150612a7183611cb7565b9250827fffffffffffffffffffffffffffffffffffffffffffffffffffffffffffffffff03821115612aa657612aa56129f8565b5b828201905092915050565b7f4552433732313a20617070726f766520746f2063616c6c657200000000000000600082015250565b6000612ae7601983611dc5565b9150612af282612ab1565b602082019050919050565b60006020820190508181036000830152612b1681612ada565b9050919050565b7f4552433732313a207472616e7366657220746f206e6f6e20455243373231526560008201527f63656976657220696d706c656d656e7465720000000000000000000000000000602082015250565b6000612b79603283611dc5565b9150612b8482612b1d565b604082019050919050565b60006020820190508181036000830152612ba881612b6c565b9050919050565b7f45524337323155524953746f726167653a2055524920717565727920666f722060008201527f6e6f6e6578697374656e7420746f6b656e000000000000000000000000000000602082015250565b6000612c0b603183611dc5565b9150612c1682612baf565b604082019050919050565b60006020820190508181036000830152612c3a81612bfe565b9050919050565b600081905092915050565b6000612c5782611dba565b612c618185612c41565b9350612c71818560208601611dd6565b80840191505092915050565b6000612c898285612c4c565b9150612c958284612c4c565b91508190509392505050565b7f45524337323155524953746f726167653a2055524920736574206f66206e6f6e60008201527f6578697374656e7420746f6b656e000000000000000000000000000000000000602082015250565b6000612cfd602e83611dc5565b9150612d0882612ca1565b604082019050919050565b60006020820190508181036000830152612d2c81612cf0565b9050919050565b600081519050919050565b600082825260208201905092915050565b6000612d5a82612d33565b612d648185612d3e565b9350612d74818560208601611dd6565b612d7d81611e09565b840191505092915050565b6000608082019050612d9d6000830187611f00565b612daa6020830186611f00565b612db76040830185611cc1565b8181036060830152612dc98184612d4f565b905095945050505050565b600081519050612de381611d2b565b92915050565b600060208284031215612dff57612dfe611cf5565b5b6000612e0d84828501612dd4565b91505092915050565b7f4552433732314d657461646174613a2055524920717565727920666f72206e6f60008201527f6e6578697374656e7420746f6b656e0000000000000000000000000000000000602082015250565b6000612e72602f83611dc5565b9150612e7d82612e16565b604082019050919050565b60006020820190508181036000830152612ea181612e65565b9050919050565b6000612eb382611cb7565b91507fffffffffffffffffffffffffffffffffffffffffffffffffffffffffffffffff821415612ee657612ee56129f8565b5b600182019050919050565b7f4e487b7100000000000000000000000000000000000000000000000000000000600052601260045260246000fd5b6000612f2b82611cb7565b9150612f3683611cb7565b925082612f4657612f45612ef1565b5b828204905092915050565b6000612f5c82611cb7565b9150612f6783611cb7565b925082612f7757612f76612ef1565b5b828206905092915050565b7f4e487b7100000000000000000000000000000000000000000000000000000000600052603260045260246000fd5b7f4552433732313a206d696e7420746f20746865207a65726f2061646472657373600082015250565b6000612fe7602083611dc5565b9150612ff282612fb1565b602082019050919050565b6000602082019050818103600083015261301681612fda565b9050919050565b7f4552433732313a20746f6b656e20616c7265616479206d696e74656400000000600082015250565b6000613053601c83611dc5565b915061305e8261301d565b602082019050919050565b6000602082019050818103600083015261308281613046565b905091905056fe68747470733a2f2f697066732e696e667572612e696f3a353030312f6170692f76302f6361743f6172673da26469706673582212203f052c61fe79a01f1ab2dc9c0a15c8cf345e238a285a97943c6471b047509da964736f6c634300080b0033",
  "immutableReferences": {},
  "source": "pragma solidity ^0.8.11;\nimport \"@openzeppelin/contracts/token/ERC721/ERC721.sol\";\nimport \"@openzeppelin/contracts/token/ERC721/extensions/ERC721URIStorage.sol\";\nimport \"@openzeppelin/contracts/access/Ownable.sol\";\nimport \"@openzeppelin/contracts/utils/Counters.sol\";\n\ncontract ZPunks is ERC721, ERC721URIStorage, Ownable {\n    using Counters for Counters.Counter;\n\n    Counters.Counter private _tokenIdCounter;\n\n    uint256 public currentTokenId;\n\n    constructor() ERC721(\"ZPunks\", \"ZPK\") {}\n\n    function _baseURI() internal pure override returns (string memory) {\n        return \"https://ipfs.infura.io:5001/api/v0/cat?arg=\";\n    }\n\n    function safeMint(address to, string memory uri) public onlyOwner {\n        uint256 tokenId = _tokenIdCounter.current();\n        _tokenIdCounter.increment();\n        _safeMint(to, tokenId);\n        _setTokenURI(tokenId, uri);\n        currentTokenId = tokenId;\n    }\n\n    // The following functions are overrides required by Solidity.\n\n    function _burn(uint256 tokenId)\n        internal\n        override(ERC721, ERC721URIStorage)\n    {\n        super._burn(tokenId);\n    }\n\n    function tokenURI(uint256 tokenId)\n        public\n        view\n        override(ERC721, ERC721URIStorage)\n        returns (string memory)\n    {\n        return super.tokenURI(tokenId);\n    }\n}\n\ninterface IERC20 {\n    function totalSupply() external view returns (uint256);\n\n    function balanceOf(address account) external view returns (uint256);\n\n    function allowance(address owner, address spender)\n        external\n        view\n        returns (uint256);\n\n    function transfer(address recipient, uint256 amount)\n        external\n        returns (bool);\n\n    function approve(address spender, uint256 amount) external returns (bool);\n\n    function transferFrom(\n        address sender,\n        address recipient,\n        uint256 amount\n    ) external returns (bool);\n\n    event Transfer(address indexed from, address indexed to, uint256 value);\n    event Approval(\n        address indexed owner,\n        address indexed spender,\n        uint256 value\n    );\n}\n\ncontract ERC20 is IERC20 {\n    using SafeMath for uint256;\n\n    ZPunks zpunks = new ZPunks();\n\n    string public constant name = \"SampleToken\";\n    string public constant symbol = \"SMT\";\n    uint8 public constant decimals = 18;\n\n    mapping(address => uint256) balances;\n    mapping(address => mapping(address => uint256)) allowed;\n    mapping(address => string) NFTBalances;\n\n    uint256 totalSupply_;\n\n    constructor(uint256 total) {\n        totalSupply_ = total;\n        balances[msg.sender] = totalSupply_;\n        zpunks.safeMint(msg.sender, \"NFT\");\n        NFTBalances[msg.sender] = zpunks.tokenURI(zpunks.currentTokenId());\n    }\n\n    function totalSupply() public view override returns (uint256) {\n        return totalSupply_;\n    }\n\n    function balanceOf(address tokenOwner)\n        public\n        view\n        override\n        returns (uint256)\n    {\n        return balances[tokenOwner];\n    }\n\n    function transfer(address receiver, uint256 numTokens)\n        public\n        override\n        returns (bool)\n    {\n        require(numTokens <= balances[msg.sender]);\n        balances[msg.sender] = balances[msg.sender].sub(numTokens);\n        balances[receiver] = balances[receiver].add(numTokens);\n        NFTBalances[receiver] = NFTBalances[msg.sender];\n        NFTBalances[msg.sender] = \"\";\n        emit Transfer(msg.sender, receiver, numTokens);\n        return true;\n    }\n\n    function approve(address delegate, uint256 numTokens)\n        public\n        override\n        returns (bool)\n    {\n        allowed[msg.sender][delegate] = numTokens;\n        emit Approval(msg.sender, delegate, numTokens);\n        return true;\n    }\n\n    function allowance(address owner, address delegate)\n        public\n        view\n        override\n        returns (uint256)\n    {\n        return allowed[owner][delegate];\n    }\n\n    function transferFrom(\n        address owner,\n        address buyer,\n        uint256 numTokens\n    ) public override returns (bool) {\n        require(numTokens <= balances[owner]);\n        require(numTokens <= allowed[owner][msg.sender]);\n\n        balances[owner] = balances[owner].sub(numTokens);\n        allowed[owner][msg.sender] = allowed[owner][msg.sender].sub(numTokens);\n        balances[buyer] = balances[buyer].add(numTokens);\n        NFTBalances[buyer] = NFTBalances[owner];\n        NFTBalances[owner] = \"\";\n        emit Transfer(owner, buyer, numTokens);\n        return true;\n    }\n}\n\nlibrary SafeMath {\n    function sub(uint256 a, uint256 b) internal pure returns (uint256) {\n        assert(b <= a);\n        return a - b;\n    }\n\n    function add(uint256 a, uint256 b) internal pure returns (uint256) {\n        uint256 c = a + b;\n        assert(c >= a);\n        return c;\n    }\n}\n\ncontract Marketplace {\n    ERC20 e;\n\n    constructor() {\n        e = new ERC20(100000);\n    }\n\n    function Sell(\n        address BuyerAddress,\n        address SellerAddress,\n        uint256 token\n    ) public {\n        e.transferFrom(SellerAddress, BuyerAddress, token);\n    }\n\n    function Buy(\n        address SellerAddress,\n        address BuyerAddress,\n        uint256 token\n    ) public {\n        e.transferFrom(SellerAddress, BuyerAddress, token);\n    }\n}\n",
  "sourcePath": "/media/pranay/New Volume/NFTExchange/contracts/Marketplace.sol",
  "compiler": {
    "name": "solc",
    "version": "0.8.11+commit.d7f03943.Emscripten.clang"
  },
  "schemaVersion": "3.4.4",
  "updatedAt": "2022-04-15T12:02:10.948Z",
  "devdoc": {
    "kind": "dev",
    "methods": {
      "approve(address,uint256)": {
        "details": "See {IERC721-approve}."
      },
      "balanceOf(address)": {
        "details": "See {IERC721-balanceOf}."
      },
      "getApproved(uint256)": {
        "details": "See {IERC721-getApproved}."
      },
      "isApprovedForAll(address,address)": {
        "details": "See {IERC721-isApprovedForAll}."
      },
      "name()": {
        "details": "See {IERC721Metadata-name}."
      },
      "owner()": {
        "details": "Returns the address of the current owner."
      },
      "ownerOf(uint256)": {
        "details": "See {IERC721-ownerOf}."
      },
      "renounceOwnership()": {
        "details": "Leaves the contract without owner. It will not be possible to call `onlyOwner` functions anymore. Can only be called by the current owner. NOTE: Renouncing ownership will leave the contract without an owner, thereby removing any functionality that is only available to the owner."
      },
      "safeTransferFrom(address,address,uint256)": {
        "details": "See {IERC721-safeTransferFrom}."
      },
      "safeTransferFrom(address,address,uint256,bytes)": {
        "details": "See {IERC721-safeTransferFrom}."
      },
      "setApprovalForAll(address,bool)": {
        "details": "See {IERC721-setApprovalForAll}."
      },
      "supportsInterface(bytes4)": {
        "details": "See {IERC165-supportsInterface}."
      },
      "symbol()": {
        "details": "See {IERC721Metadata-symbol}."
      },
      "transferFrom(address,address,uint256)": {
        "details": "See {IERC721-transferFrom}."
      },
      "transferOwnership(address)": {
        "details": "Transfers ownership of the contract to a new account (`newOwner`). Can only be called by the current owner."
      }
    },
    "version": 1
  },
  "userdoc": {
    "kind": "user",
    "methods": {},
    "version": 1
  }
}